{
  "_format": "hh-sol-artifact-1",
  "contractName": "SaleFactory",
  "sourceName": "contracts/Sales.sol",
  "abi": [
    {
      "inputs": [
        {
          "internalType": "address",
          "name": "_address",
          "type": "address"
        },
        {
          "internalType": "address",
          "name": "_poster",
          "type": "address"
        },
        {
          "internalType": "address",
          "name": "_itemTokenAddress",
          "type": "address"
        },
        {
          "internalType": "uint256",
          "name": "_item",
          "type": "uint256"
        },
        {
          "internalType": "uint256",
          "name": "_price",
          "type": "uint256"
        },
        {
          "internalType": "bytes32",
          "name": "_status",
          "type": "bytes32"
        }
      ],
      "name": "addStruct",
      "outputs": [],
      "stateMutability": "nonpayable",
      "type": "function"
    },
    {
      "inputs": [
        {
          "internalType": "address",
          "name": "_itemTokenAddress",
          "type": "address"
        },
        {
          "internalType": "uint256",
          "name": "_item",
          "type": "uint256"
        },
        {
          "internalType": "uint256",
          "name": "price",
          "type": "uint256"
        }
      ],
      "name": "createSale",
      "outputs": [
        {
          "internalType": "address",
          "name": "created",
          "type": "address"
        }
      ],
      "stateMutability": "nonpayable",
      "type": "function"
    },
    {
      "inputs": [],
      "name": "getSales",
      "outputs": [
        {
          "internalType": "address[]",
          "name": "",
          "type": "address[]"
        }
      ],
      "stateMutability": "view",
      "type": "function"
    },
    {
      "inputs": [],
      "name": "getSalesDetailed",
      "outputs": [
        {
          "components": [
            {
              "internalType": "address",
              "name": "ale",
              "type": "address"
            },
            {
              "internalType": "address",
              "name": "oster",
              "type": "address"
            },
            {
              "internalType": "address",
              "name": "temTokenAddress",
              "type": "address"
            },
            {
              "internalType": "uint256",
              "name": "tem",
              "type": "uint256"
            },
            {
              "internalType": "uint256",
              "name": "rice",
              "type": "uint256"
            },
            {
              "internalType": "bytes32",
              "name": "tatus",
              "type": "bytes32"
            }
          ],
          "internalType": "struct SaleFactory.Trade[]",
          "name": "",
          "type": "tuple[]"
        }
      ],
      "stateMutability": "view",
      "type": "function"
    },
    {
      "inputs": [
        {
          "internalType": "uint256",
          "name": "",
          "type": "uint256"
        }
      ],
      "name": "sales",
      "outputs": [
        {
          "internalType": "address",
          "name": "",
          "type": "address"
        }
      ],
      "stateMutability": "view",
      "type": "function"
    },
    {
      "inputs": [
        {
          "internalType": "uint256",
          "name": "",
          "type": "uint256"
        }
      ],
      "name": "trades",
      "outputs": [
        {
          "internalType": "address",
          "name": "ale",
          "type": "address"
        },
        {
          "internalType": "address",
          "name": "oster",
          "type": "address"
        },
        {
          "internalType": "address",
          "name": "temTokenAddress",
          "type": "address"
        },
        {
          "internalType": "uint256",
          "name": "tem",
          "type": "uint256"
        },
        {
          "internalType": "uint256",
          "name": "rice",
          "type": "uint256"
        },
        {
          "internalType": "bytes32",
          "name": "tatus",
          "type": "bytes32"
        }
      ],
      "stateMutability": "view",
      "type": "function"
    }
  ],
  "bytecode": "0x608060405234801561001057600080fd5b50612350806100206000396000f3fe60806040523480156200001157600080fd5b50600436106200006a5760003560e01c80630d83304c146200006f5780631e6c598e14620000915780639f161af214620000cc578063b5f522f71462000102578063c98bd27d1462000138578063d4b61358146200015a575b600080fd5b620000796200017a565b60405162000088919062000b8c565b60405180910390f35b620000af6004803603810190620000a9919062000883565b6200020a565b604051620000c39695949392919062000b1f565b60405180910390f35b620000ea6004803603810190620000e491906200082d565b620002b4565b604051620000f9919062000ab5565b60405180910390f35b6200012060048036038101906200011a919062000883565b62000366565b6040516200012f919062000ab5565b60405180910390f35b62000142620003a3565b60405162000151919062000bb0565b60405180910390f35b62000178600480360381019062000172919062000797565b62000524565b005b606060008054806020026020016040519081016040528092919081815260200182805480156200020057602002820191906000526020600020905b8160009054906101000a900473ffffffffffffffffffffffffffffffffffffffff1673ffffffffffffffffffffffffffffffffffffffff1681526020019060010190808311620001b5575b5050505050905090565b600181815481106200021857fe5b90600052602060002090600602016000915090508060000160009054906101000a900473ffffffffffffffffffffffffffffffffffffffff16908060010160009054906101000a900473ffffffffffffffffffffffffffffffffffffffff16908060020160009054906101000a900473ffffffffffffffffffffffffffffffffffffffff16908060030154908060040154908060050154905086565b60008033858585604051620002c990620006c9565b620002d8949392919062000ad2565b604051809103906000f080158015620002f5573d6000803e3d6000fd5b5090506000819080600181540180825580915050600190039060005260206000200160009091909190916101000a81548173ffffffffffffffffffffffffffffffffffffffff021916908373ffffffffffffffffffffffffffffffffffffffff160217905550809150509392505050565b600081815481106200037457fe5b906000526020600020016000915054906101000a900473ffffffffffffffffffffffffffffffffffffffff1681565b60606001805480602002602001604051908101604052809291908181526020016000905b828210156200051b57838290600052602060002090600602016040518060c00160405290816000820160009054906101000a900473ffffffffffffffffffffffffffffffffffffffff1673ffffffffffffffffffffffffffffffffffffffff1673ffffffffffffffffffffffffffffffffffffffff1681526020016001820160009054906101000a900473ffffffffffffffffffffffffffffffffffffffff1673ffffffffffffffffffffffffffffffffffffffff1673ffffffffffffffffffffffffffffffffffffffff1681526020016002820160009054906101000a900473ffffffffffffffffffffffffffffffffffffffff1673ffffffffffffffffffffffffffffffffffffffff1673ffffffffffffffffffffffffffffffffffffffff168152602001600382015481526020016004820154815260200160058201548152505081526020019060010190620003c7565b50505050905090565b6200052e620006d7565b6040518060c001604052808873ffffffffffffffffffffffffffffffffffffffff1681526020018773ffffffffffffffffffffffffffffffffffffffff1681526020018673ffffffffffffffffffffffffffffffffffffffff168152602001858152602001848152602001838152509050600181908060018154018082558091505060019003906000526020600020906006020160009091909190915060008201518160000160006101000a81548173ffffffffffffffffffffffffffffffffffffffff021916908373ffffffffffffffffffffffffffffffffffffffff16021790555060208201518160010160006101000a81548173ffffffffffffffffffffffffffffffffffffffff021916908373ffffffffffffffffffffffffffffffffffffffff16021790555060408201518160020160006101000a81548173ffffffffffffffffffffffffffffffffffffffff021916908373ffffffffffffffffffffffffffffffffffffffff160217905550606082015181600301556080820151816004015560a08201518160050155505050505050505050565b61162a8062000cf183390190565b6040518060c00160405280600073ffffffffffffffffffffffffffffffffffffffff168152602001600073ffffffffffffffffffffffffffffffffffffffff168152602001600073ffffffffffffffffffffffffffffffffffffffff1681526020016000815260200160008152602001600080191681525090565b600081359050620007638162000ca2565b92915050565b6000813590506200077a8162000cbc565b92915050565b600081359050620007918162000cd6565b92915050565b60008060008060008060c08789031215620007b157600080fd5b6000620007c189828a0162000752565b9650506020620007d489828a0162000752565b9550506040620007e789828a0162000752565b9450506060620007fa89828a0162000780565b93505060806200080d89828a0162000780565b92505060a06200082089828a0162000769565b9150509295509295509295565b6000806000606084860312156200084357600080fd5b6000620008538682870162000752565b9350506020620008668682870162000780565b9250506040620008798682870162000780565b9150509250925092565b6000602082840312156200089657600080fd5b6000620008a68482850162000780565b91505092915050565b6000620008bd8383620008f4565b60208301905092915050565b6000620008d7838362000a0c565b60c08301905092915050565b620008ee8162000c5a565b82525050565b620008ff8162000c46565b82525050565b620009108162000c46565b82525050565b6000620009238262000bf4565b6200092f818562000c24565b93506200093c8362000bd4565b8060005b8381101562000973578151620009578882620008af565b9750620009648362000c0a565b92505060018101905062000940565b5085935050505092915050565b60006200098d8262000bff565b62000999818562000c35565b9350620009a68362000be4565b8060005b83811015620009dd578151620009c18882620008c9565b9750620009ce8362000c17565b925050600181019050620009aa565b5085935050505092915050565b620009f58162000c6e565b82525050565b62000a068162000c6e565b82525050565b60c08201600082015162000a246000850182620008f4565b50602082015162000a396020850182620008f4565b50604082015162000a4e6040850182620008f4565b50606082015162000a63606085018262000a93565b50608082015162000a78608085018262000a93565b5060a082015162000a8d60a0850182620009ea565b50505050565b62000a9e8162000c98565b82525050565b62000aaf8162000c98565b82525050565b600060208201905062000acc600083018462000905565b92915050565b600060808201905062000ae96000830187620008e3565b62000af8602083018662000905565b62000b07604083018562000aa4565b62000b16606083018462000aa4565b95945050505050565b600060c08201905062000b36600083018962000905565b62000b45602083018862000905565b62000b54604083018762000905565b62000b63606083018662000aa4565b62000b72608083018562000aa4565b62000b8160a0830184620009fb565b979650505050505050565b6000602082019050818103600083015262000ba8818462000916565b905092915050565b6000602082019050818103600083015262000bcc818462000980565b905092915050565b6000819050602082019050919050565b6000819050602082019050919050565b600081519050919050565b600081519050919050565b6000602082019050919050565b6000602082019050919050565b600082825260208201905092915050565b600082825260208201905092915050565b600062000c538262000c78565b9050919050565b600062000c678262000c78565b9050919050565b6000819050919050565b600073ffffffffffffffffffffffffffffffffffffffff82169050919050565b6000819050919050565b62000cad8162000c46565b811462000cb957600080fd5b50565b62000cc78162000c6e565b811462000cd357600080fd5b50565b62000ce18162000c98565b811462000ced57600080fd5b5056fe60806040523480156200001157600080fd5b506040516200162a3803806200162a8339818101604052810190620000379190620001be565b33600160006101000a81548173ffffffffffffffffffffffffffffffffffffffff021916908373ffffffffffffffffffffffffffffffffffffffff160217905550826000806101000a81548173ffffffffffffffffffffffffffffffffffffffff021916908373ffffffffffffffffffffffffffffffffffffffff16021790555082600460006101000a81548173ffffffffffffffffffffffffffffffffffffffff021916908373ffffffffffffffffffffffffffffffffffffffff16021790555083600260006101000a81548173ffffffffffffffffffffffffffffffffffffffff021916908373ffffffffffffffffffffffffffffffffffffffff16021790555081600581905550806006819055507f50656e64696e670000000000000000000000000000000000000000000000000060098190555050505050620002ca565b6000815190506200018a816200027c565b92915050565b600081519050620001a18162000296565b92915050565b600081519050620001b881620002b0565b92915050565b60008060008060808587031215620001d557600080fd5b6000620001e58782880162000190565b9450506020620001f88782880162000179565b93505060406200020b87828801620001a7565b92505060606200021e87828801620001a7565b91505092959194509250565b6000620002378262000252565b9050919050565b60006200024b8262000252565b9050919050565b600073ffffffffffffffffffffffffffffffffffffffff82169050919050565b6000819050919050565b62000287816200022a565b81146200029357600080fd5b50565b620002a1816200023e565b8114620002ad57600080fd5b50565b620002bb8162000272565b8114620002c757600080fd5b50565b61135080620002da6000396000f3fe6080604052600436106100dd5760003560e01c8063809597211161007f578063a95c4d6211610059578063a95c4d6214610282578063dedad97d1461028c578063f2a4a82e146102a3578063fb201b1d146102ce576100dd565b806380959721146102155780639c76230c14610240578063a035b1fe14610257576100dd565b80635a77dc46116100bb5780635a77dc461461016957806360f96a8f146101945780637150d8ae146101bf57806379210c4d146101ea576100dd565b8063200d2ed2146100e25780634051ddac1461010d57806342f6487a1461013e575b600080fd5b3480156100ee57600080fd5b506100f76102e5565b60405161010491906110dd565b60405180910390f35b34801561011957600080fd5b506101226102eb565b604051610135979695949392919061101c565b60405180910390f35b34801561014a57600080fd5b50610153610380565b60405161016091906111b8565b60405180910390f35b34801561017557600080fd5b5061017e610386565b60405161018b91906110c2565b60405180910390f35b3480156101a057600080fd5b506101a9610399565b6040516101b69190610f17565b60405180910390f35b3480156101cb57600080fd5b506101d46103bf565b6040516101e19190610f17565b60405180910390f35b3480156101f657600080fd5b506101ff6103e5565b60405161020c9190610f17565b60405180910390f35b34801561022157600080fd5b5061022a61040b565b6040516102379190610f32565b60405180910390f35b34801561024c57600080fd5b50610255610431565b005b34801561026357600080fd5b5061026c6105aa565b60405161027991906111b8565b60405180910390f35b61028a6105b0565b005b34801561029857600080fd5b506102a161077c565b005b3480156102af57600080fd5b506102b8610842565b6040516102c591906111b8565b60405180910390f35b3480156102da57600080fd5b506102e3610848565b005b60095481565b600080600080600080600030600260009054906101000a900473ffffffffffffffffffffffffffffffffffffffff16600460009054906101000a900473ffffffffffffffffffffffffffffffffffffffff16600554600654600954600360009054906101000a900473ffffffffffffffffffffffffffffffffffffffff16965096509650965096509650965090919293949596565b60075481565b600860009054906101000a900460ff1681565b600160009054906101000a900473ffffffffffffffffffffffffffffffffffffffff1681565b600360009054906101000a900473ffffffffffffffffffffffffffffffffffffffff1681565b600460009054906101000a900473ffffffffffffffffffffffffffffffffffffffff1681565b600260009054906101000a900473ffffffffffffffffffffffffffffffffffffffff1681565b7f4f70656e0000000000000000000000000000000000000000000000000000000060095414610495576040517f08c379a000000000000000000000000000000000000000000000000000000000815260040161048c906110f8565b60405180910390fd5b7f43616e63656c6c6564000000000000000000000000000000000000000000000060098190555060008054906101000a900473ffffffffffffffffffffffffffffffffffffffff1673ffffffffffffffffffffffffffffffffffffffff166342842e0e30600260009054906101000a900473ffffffffffffffffffffffffffffffffffffffff166005546040518463ffffffff1660e01b815260040161053d93929190610fe5565b600060405180830381600087803b15801561055757600080fd5b505af115801561056b573d6000803e3d6000fd5b505050507f4d38ed2c5ea671a5ccddc331f0ebebd94a60aaf6e572543497485d4d148f9edf6005546040516105a09190611221565b60405180910390a1565b60065481565b7f4f70656e0000000000000000000000000000000000000000000000000000000060095414610614576040517f08c379a000000000000000000000000000000000000000000000000000000000815260040161060b906110f8565b60405180910390fd5b600654341015610659576040517f08c379a000000000000000000000000000000000000000000000000000000000815260040161065090611138565b60405180910390fd5b60001515600860009054906101000a900460ff161515146106af576040517f08c379a00000000000000000000000000000000000000000000000000000000081526004016106a690611158565b60405180910390fd5b6001600860006101000a81548160ff021916908315150217905550346007819055507f4c6f636b6564000000000000000000000000000000000000000000000000000060098190555033600360006101000a81548173ffffffffffffffffffffffffffffffffffffffff021916908373ffffffffffffffffffffffffffffffffffffffff1602179055507f4d38ed2c5ea671a5ccddc331f0ebebd94a60aaf6e572543497485d4d148f9edf60055460405161076a91906111fa565b60405180910390a161077a610a9b565b565b7f50656e64696e6700000000000000000000000000000000000000000000000000600954146107e0576040517f08c379a00000000000000000000000000000000000000000000000000000000081526004016107d790611178565b60405180910390fd5b7f43616e63656c6c656400000000000000000000000000000000000000000000006009819055507f4d38ed2c5ea671a5ccddc331f0ebebd94a60aaf6e572543497485d4d148f9edf6005546040516108389190611221565b60405180910390a1565b60055481565b7f50656e64696e6700000000000000000000000000000000000000000000000000600954146108ac576040517f08c379a00000000000000000000000000000000000000000000000000000000081526004016108a390611198565b60405180910390fd5b7f4f70656e000000000000000000000000000000000000000000000000000000006009819055506000600860006101000a81548160ff02191690831515021790555060008054906101000a900473ffffffffffffffffffffffffffffffffffffffff1673ffffffffffffffffffffffffffffffffffffffff166323b872dd33306005546040518463ffffffff1660e01b815260040161094d93929190610f4d565b600060405180830381600087803b15801561096757600080fd5b505af115801561097b573d6000803e3d6000fd5b50505050600160009054906101000a900473ffffffffffffffffffffffffffffffffffffffff1673ffffffffffffffffffffffffffffffffffffffff1663d4b6135830600260009054906101000a900473ffffffffffffffffffffffffffffffffffffffff16600460009054906101000a900473ffffffffffffffffffffffffffffffffffffffff166005546006546009546040518763ffffffff1660e01b8152600401610a2e96959493929190610f84565b600060405180830381600087803b158015610a4857600080fd5b505af1158015610a5c573d6000803e3d6000fd5b505050507f4d38ed2c5ea671a5ccddc331f0ebebd94a60aaf6e572543497485d4d148f9edf600554604051610a919190611248565b60405180910390a1565b7f4c6f636b6564000000000000000000000000000000000000000000000000000060095414610aff576040517f08c379a0000000000000000000000000000000000000000000000000000000008152600401610af690611118565b60405180910390fd5b60008054906101000a900473ffffffffffffffffffffffffffffffffffffffff1673ffffffffffffffffffffffffffffffffffffffff166342842e0e30600360009054906101000a900473ffffffffffffffffffffffffffffffffffffffff166005546040518463ffffffff1660e01b8152600401610b809392919061108b565b600060405180830381600087803b158015610b9a57600080fd5b505af1158015610bae573d6000803e3d6000fd5b50505050600260009054906101000a900473ffffffffffffffffffffffffffffffffffffffff1673ffffffffffffffffffffffffffffffffffffffff166108fc6007549081150290604051600060405180830381858888f19350505050158015610c1c573d6000803e3d6000fd5b507f45786563757465640000000000000000000000000000000000000000000000006009819055507f4d38ed2c5ea671a5ccddc331f0ebebd94a60aaf6e572543497485d4d148f9edf600554604051610c7591906111d3565b60405180910390a1565b610c88816112e4565b82525050565b610c9781611292565b82525050565b610ca681611280565b82525050565b610cb5816112a4565b82525050565b610cc4816112b0565b82525050565b7f4578656375746564000000000000000000000000000000000000000000000000815250565b7f4c6f636b65640000000000000000000000000000000000000000000000000000815250565b6000610d2360128361126f565b91507f5472616465206973206e6f74204f70656e2e00000000000000000000000000006000830152602082019050919050565b7f43616e63656c6c65640000000000000000000000000000000000000000000000815250565b6000610d8960178361126f565b91507f5472616465206973206e6f74206c6f636b656420696e2e0000000000000000006000830152602082019050919050565b7f4f70656e00000000000000000000000000000000000000000000000000000000815250565b6000610def60298361126f565b91507f5061796d656e74206d757374206d656574206f72206578636565642061736b6960008301527f6e672070726963652e00000000000000000000000000000000000000000000006020830152604082019050919050565b6000610e55601b8361126f565b91507f4974656d206973206e6f206c6f6e67657220617661696c61626c6500000000006000830152602082019050919050565b6000610e9560158361126f565b91507f5472616465206973206e6f742050656e64696e672e00000000000000000000006000830152602082019050919050565b6000610ed560168361126f565b91507f5472616465206973206e6f74206f70656e61626c652e000000000000000000006000830152602082019050919050565b610f11816112da565b82525050565b6000602082019050610f2c6000830184610c9d565b92915050565b6000602082019050610f476000830184610c8e565b92915050565b6000606082019050610f626000830186610c7f565b610f6f6020830185610c9d565b610f7c6040830184610f08565b949350505050565b600060c082019050610f996000830189610c9d565b610fa66020830188610c7f565b610fb36040830187610c9d565b610fc06060830186610f08565b610fcd6080830185610f08565b610fda60a0830184610cbb565b979650505050505050565b6000606082019050610ffa6000830186610c9d565b6110076020830185610c7f565b6110146040830184610f08565b949350505050565b600060e082019050611031600083018a610c9d565b61103e6020830189610c9d565b61104b6040830188610c9d565b6110586060830187610f08565b6110656080830186610f08565b61107260a0830185610cbb565b61107f60c0830184610c9d565b98975050505050505050565b60006060820190506110a06000830186610c9d565b6110ad6020830185610c9d565b6110ba6040830184610f08565b949350505050565b60006020820190506110d76000830184610cac565b92915050565b60006020820190506110f26000830184610cbb565b92915050565b6000602082019050818103600083015261111181610d16565b9050919050565b6000602082019050818103600083015261113181610d7c565b9050919050565b6000602082019050818103600083015261115181610de2565b9050919050565b6000602082019050818103600083015261117181610e48565b9050919050565b6000602082019050818103600083015261119181610e88565b9050919050565b600060208201905081810360008301526111b181610ec8565b9050919050565b60006020820190506111cd6000830184610f08565b92915050565b60006040820190506111e86000830184610f08565b6111f460208301610cca565b92915050565b600060408201905061120f6000830184610f08565b61121b60208301610cf0565b92915050565b60006040820190506112366000830184610f08565b61124260208301610d56565b92915050565b600060408201905061125d6000830184610f08565b61126960208301610dbc565b92915050565b600082825260208201905092915050565b600061128b826112ba565b9050919050565b600061129d826112ba565b9050919050565b60008115159050919050565b6000819050919050565b600073ffffffffffffffffffffffffffffffffffffffff82169050919050565b6000819050919050565b60006112ef826112f6565b9050919050565b600061130182611308565b9050919050565b6000611313826112ba565b905091905056fea264697066735822122080e0da6282cf4a96bc3c9566cae63507c9bfdddff41cc86b658b3e58387e558264736f6c63430007030033a2646970667358221220db5ddb476241880bfce31b9bd9937190515d27c44cdc5b186b514e88a02d45da64736f6c63430007030033",
  "linkReferences": {},
  "deployedLinkReferences": {}
}