{
  "_format": "hh-sol-artifact-1",
  "contractName": "Sale",
  "sourceName": "contracts/Sales.sol",
  "abi": [
    {
      "inputs": [
        {
          "internalType": "address payable",
          "name": "_poster",
          "type": "address"
        },
        {
          "internalType": "address",
          "name": "_itemTokenAddress",
          "type": "address"
        },
        {
          "internalType": "uint256",
          "name": "_item",
          "type": "uint256"
        },
        {
          "internalType": "uint256",
          "name": "_price",
          "type": "uint256"
        }
      ],
      "stateMutability": "nonpayable",
      "type": "constructor"
    },
    {
      "anonymous": false,
      "inputs": [
        {
          "indexed": false,
          "internalType": "address",
          "name": "ad",
          "type": "address"
        }
      ],
      "name": "ContractCreated",
      "type": "event"
    },
    {
      "anonymous": false,
      "inputs": [
        {
          "indexed": false,
          "internalType": "uint256",
          "name": "ad",
          "type": "uint256"
        },
        {
          "indexed": false,
          "internalType": "bytes32",
          "name": "status",
          "type": "bytes32"
        }
      ],
      "name": "TradeStatusChange",
      "type": "event"
    },
    {
      "inputs": [],
      "name": "buyer",
      "outputs": [
        {
          "internalType": "address",
          "name": "",
          "type": "address"
        }
      ],
      "stateMutability": "view",
      "type": "function"
    },
    {
      "inputs": [],
      "name": "cancelPending",
      "outputs": [],
      "stateMutability": "nonpayable",
      "type": "function"
    },
    {
      "inputs": [],
      "name": "cancelTrade",
      "outputs": [],
      "stateMutability": "nonpayable",
      "type": "function"
    },
    {
      "inputs": [],
      "name": "getSummary",
      "outputs": [
        {
          "internalType": "address",
          "name": "",
          "type": "address"
        },
        {
          "internalType": "address",
          "name": "",
          "type": "address"
        },
        {
          "internalType": "address",
          "name": "",
          "type": "address"
        },
        {
          "internalType": "uint256",
          "name": "",
          "type": "uint256"
        },
        {
          "internalType": "uint256",
          "name": "",
          "type": "uint256"
        },
        {
          "internalType": "bytes32",
          "name": "",
          "type": "bytes32"
        },
        {
          "internalType": "address",
          "name": "",
          "type": "address"
        }
      ],
      "stateMutability": "view",
      "type": "function"
    },
    {
      "inputs": [],
      "name": "item",
      "outputs": [
        {
          "internalType": "uint256",
          "name": "",
          "type": "uint256"
        }
      ],
      "stateMutability": "view",
      "type": "function"
    },
    {
      "inputs": [],
      "name": "itemTokenAddress",
      "outputs": [
        {
          "internalType": "address",
          "name": "",
          "type": "address"
        }
      ],
      "stateMutability": "view",
      "type": "function"
    },
    {
      "inputs": [],
      "name": "openTrade",
      "outputs": [],
      "stateMutability": "nonpayable",
      "type": "function"
    },
    {
      "inputs": [],
      "name": "parent",
      "outputs": [
        {
          "internalType": "address",
          "name": "",
          "type": "address"
        }
      ],
      "stateMutability": "view",
      "type": "function"
    },
    {
      "inputs": [],
      "name": "payment",
      "outputs": [
        {
          "internalType": "uint256",
          "name": "",
          "type": "uint256"
        }
      ],
      "stateMutability": "view",
      "type": "function"
    },
    {
      "inputs": [],
      "name": "poster",
      "outputs": [
        {
          "internalType": "address payable",
          "name": "",
          "type": "address"
        }
      ],
      "stateMutability": "view",
      "type": "function"
    },
    {
      "inputs": [],
      "name": "price",
      "outputs": [
        {
          "internalType": "uint256",
          "name": "",
          "type": "uint256"
        }
      ],
      "stateMutability": "view",
      "type": "function"
    },
    {
      "inputs": [],
      "name": "purchaseToken",
      "outputs": [],
      "stateMutability": "payable",
      "type": "function"
    },
    {
      "inputs": [],
      "name": "purchaser",
      "outputs": [
        {
          "internalType": "bool",
          "name": "",
          "type": "bool"
        }
      ],
      "stateMutability": "view",
      "type": "function"
    },
    {
      "inputs": [],
      "name": "status",
      "outputs": [
        {
          "internalType": "bytes32",
          "name": "",
          "type": "bytes32"
        }
      ],
      "stateMutability": "view",
      "type": "function"
    }
  ],
  "bytecode": "0x60806040523480156200001157600080fd5b5060405162001934380380620019348339818101604052810190620000379190620001f7565b33600160006101000a81548173ffffffffffffffffffffffffffffffffffffffff021916908373ffffffffffffffffffffffffffffffffffffffff160217905550826000806101000a81548173ffffffffffffffffffffffffffffffffffffffff021916908373ffffffffffffffffffffffffffffffffffffffff16021790555082600460006101000a81548173ffffffffffffffffffffffffffffffffffffffff021916908373ffffffffffffffffffffffffffffffffffffffff16021790555083600260006101000a81548173ffffffffffffffffffffffffffffffffffffffff021916908373ffffffffffffffffffffffffffffffffffffffff16021790555081600581905550806006819055507f50656e64696e67000000000000000000000000000000000000000000000000006009819055507fcf78cf0d6f3d8371e1075c69c492ab4ec5d8cf23a1a239b6a51a1d00be7ca31230604051620001a0919062000274565b60405180910390a15050505062000331565b600081519050620001c381620002e3565b92915050565b600081519050620001da81620002fd565b92915050565b600081519050620001f18162000317565b92915050565b600080600080608085870312156200020e57600080fd5b60006200021e87828801620001c9565b94505060206200023187828801620001b2565b93505060406200024487828801620001e0565b92505060606200025787828801620001e0565b91505092959194509250565b6200026e8162000291565b82525050565b60006020820190506200028b600083018462000263565b92915050565b60006200029e82620002b9565b9050919050565b6000620002b282620002b9565b9050919050565b600073ffffffffffffffffffffffffffffffffffffffff82169050919050565b6000819050919050565b620002ee8162000291565b8114620002fa57600080fd5b50565b6200030881620002a5565b81146200031457600080fd5b50565b6200032281620002d9565b81146200032e57600080fd5b50565b6115f380620003416000396000f3fe6080604052600436106100dd5760003560e01c8063809597211161007f578063a95c4d6211610059578063a95c4d6214610282578063dedad97d1461028c578063f2a4a82e146102a3578063fb201b1d146102ce576100dd565b806380959721146102155780639c76230c14610240578063a035b1fe14610257576100dd565b80635a77dc46116100bb5780635a77dc461461016957806360f96a8f146101945780637150d8ae146101bf57806379210c4d146101ea576100dd565b8063200d2ed2146100e25780634051ddac1461010d57806342f6487a1461013e575b600080fd5b3480156100ee57600080fd5b506100f76102e5565b6040516101049190611380565b60405180910390f35b34801561011957600080fd5b506101226102eb565b60405161013597969594939291906112bf565b60405180910390f35b34801561014a57600080fd5b50610153610380565b604051610160919061145b565b60405180910390f35b34801561017557600080fd5b5061017e610386565b60405161018b9190611365565b60405180910390f35b3480156101a057600080fd5b506101a9610399565b6040516101b691906111ba565b60405180910390f35b3480156101cb57600080fd5b506101d46103bf565b6040516101e191906111ba565b60405180910390f35b3480156101f657600080fd5b506101ff6103e5565b60405161020c91906111ba565b60405180910390f35b34801561022157600080fd5b5061022a61040b565b60405161023791906111d5565b60405180910390f35b34801561024c57600080fd5b50610255610431565b005b34801561026357600080fd5b5061026c61068b565b604051610279919061145b565b60405180910390f35b61028a610691565b005b34801561029857600080fd5b506102a161093e565b005b3480156102af57600080fd5b506102b8610a04565b6040516102c5919061145b565b60405180910390f35b3480156102da57600080fd5b506102e3610a0a565b005b60095481565b600080600080600080600030600260009054906101000a900473ffffffffffffffffffffffffffffffffffffffff16600460009054906101000a900473ffffffffffffffffffffffffffffffffffffffff16600554600654600954600360009054906101000a900473ffffffffffffffffffffffffffffffffffffffff16965096509650965096509650965090919293949596565b60075481565b600860009054906101000a900460ff1681565b600160009054906101000a900473ffffffffffffffffffffffffffffffffffffffff1681565b600360009054906101000a900473ffffffffffffffffffffffffffffffffffffffff1681565b600460009054906101000a900473ffffffffffffffffffffffffffffffffffffffff1681565b600260009054906101000a900473ffffffffffffffffffffffffffffffffffffffff1681565b7f4f70656e0000000000000000000000000000000000000000000000000000000060095414610495576040517f08c379a000000000000000000000000000000000000000000000000000000000815260040161048c9061139b565b60405180910390fd5b7f43616e63656c6c6564000000000000000000000000000000000000000000000060098190555060008054906101000a900473ffffffffffffffffffffffffffffffffffffffff1673ffffffffffffffffffffffffffffffffffffffff166342842e0e30600260009054906101000a900473ffffffffffffffffffffffffffffffffffffffff166005546040518463ffffffff1660e01b815260040161053d93929190611288565b600060405180830381600087803b15801561055757600080fd5b505af115801561056b573d6000803e3d6000fd5b50505050600160009054906101000a900473ffffffffffffffffffffffffffffffffffffffff1673ffffffffffffffffffffffffffffffffffffffff1663d4b6135830600260009054906101000a900473ffffffffffffffffffffffffffffffffffffffff16600460009054906101000a900473ffffffffffffffffffffffffffffffffffffffff166005546006546009546040518763ffffffff1660e01b815260040161061e96959493929190611227565b600060405180830381600087803b15801561063857600080fd5b505af115801561064c573d6000803e3d6000fd5b505050507f4d38ed2c5ea671a5ccddc331f0ebebd94a60aaf6e572543497485d4d148f9edf60055460405161068191906114c4565b60405180910390a1565b60065481565b7f4f70656e00000000000000000000000000000000000000000000000000000000600954146106f5576040517f08c379a00000000000000000000000000000000000000000000000000000000081526004016106ec9061139b565b60405180910390fd5b60065434101561073a576040517f08c379a0000000000000000000000000000000000000000000000000000000008152600401610731906113db565b60405180910390fd5b60001515600860009054906101000a900460ff16151514610790576040517f08c379a0000000000000000000000000000000000000000000000000000000008152600401610787906113fb565b60405180910390fd5b6001600860006101000a81548160ff021916908315150217905550346007819055507f4c6f636b6564000000000000000000000000000000000000000000000000000060098190555033600360006101000a81548173ffffffffffffffffffffffffffffffffffffffff021916908373ffffffffffffffffffffffffffffffffffffffff160217905550600160009054906101000a900473ffffffffffffffffffffffffffffffffffffffff1673ffffffffffffffffffffffffffffffffffffffff1663d4b6135830600260009054906101000a900473ffffffffffffffffffffffffffffffffffffffff16600460009054906101000a900473ffffffffffffffffffffffffffffffffffffffff166005546006546009546040518763ffffffff1660e01b81526004016108c996959493929190611227565b600060405180830381600087803b1580156108e357600080fd5b505af11580156108f7573d6000803e3d6000fd5b505050507f4d38ed2c5ea671a5ccddc331f0ebebd94a60aaf6e572543497485d4d148f9edf60055460405161092c919061149d565b60405180910390a161093c610c5d565b565b7f50656e64696e6700000000000000000000000000000000000000000000000000600954146109a2576040517f08c379a00000000000000000000000000000000000000000000000000000000081526004016109999061141b565b60405180910390fd5b7f43616e63656c6c656400000000000000000000000000000000000000000000006009819055507f4d38ed2c5ea671a5ccddc331f0ebebd94a60aaf6e572543497485d4d148f9edf6005546040516109fa91906114c4565b60405180910390a1565b60055481565b7f50656e64696e670000000000000000000000000000000000000000000000000060095414610a6e576040517f08c379a0000000000000000000000000000000000000000000000000000000008152600401610a659061143b565b60405180910390fd5b7f4f70656e000000000000000000000000000000000000000000000000000000006009819055506000600860006101000a81548160ff02191690831515021790555060008054906101000a900473ffffffffffffffffffffffffffffffffffffffff1673ffffffffffffffffffffffffffffffffffffffff166323b872dd33306005546040518463ffffffff1660e01b8152600401610b0f939291906111f0565b600060405180830381600087803b158015610b2957600080fd5b505af1158015610b3d573d6000803e3d6000fd5b50505050600160009054906101000a900473ffffffffffffffffffffffffffffffffffffffff1673ffffffffffffffffffffffffffffffffffffffff1663d4b6135830600260009054906101000a900473ffffffffffffffffffffffffffffffffffffffff16600460009054906101000a900473ffffffffffffffffffffffffffffffffffffffff166005546006546009546040518763ffffffff1660e01b8152600401610bf096959493929190611227565b600060405180830381600087803b158015610c0a57600080fd5b505af1158015610c1e573d6000803e3d6000fd5b505050507f4d38ed2c5ea671a5ccddc331f0ebebd94a60aaf6e572543497485d4d148f9edf600554604051610c5391906114eb565b60405180910390a1565b7f4c6f636b6564000000000000000000000000000000000000000000000000000060095414610cc1576040517f08c379a0000000000000000000000000000000000000000000000000000000008152600401610cb8906113bb565b60405180910390fd5b60008054906101000a900473ffffffffffffffffffffffffffffffffffffffff1673ffffffffffffffffffffffffffffffffffffffff166342842e0e30600360009054906101000a900473ffffffffffffffffffffffffffffffffffffffff166005546040518463ffffffff1660e01b8152600401610d429392919061132e565b600060405180830381600087803b158015610d5c57600080fd5b505af1158015610d70573d6000803e3d6000fd5b50505050600260009054906101000a900473ffffffffffffffffffffffffffffffffffffffff1673ffffffffffffffffffffffffffffffffffffffff166108fc6007549081150290604051600060405180830381858888f19350505050158015610dde573d6000803e3d6000fd5b507f4578656375746564000000000000000000000000000000000000000000000000600981905550600160009054906101000a900473ffffffffffffffffffffffffffffffffffffffff1673ffffffffffffffffffffffffffffffffffffffff1663d4b6135830600260009054906101000a900473ffffffffffffffffffffffffffffffffffffffff16600460009054906101000a900473ffffffffffffffffffffffffffffffffffffffff166005546006546009546040518763ffffffff1660e01b8152600401610eb596959493929190611227565b600060405180830381600087803b158015610ecf57600080fd5b505af1158015610ee3573d6000803e3d6000fd5b505050507f4d38ed2c5ea671a5ccddc331f0ebebd94a60aaf6e572543497485d4d148f9edf600554604051610f189190611476565b60405180910390a1565b610f2b81611587565b82525050565b610f3a81611535565b82525050565b610f4981611523565b82525050565b610f5881611547565b82525050565b610f6781611553565b82525050565b7f4578656375746564000000000000000000000000000000000000000000000000815250565b7f4c6f636b65640000000000000000000000000000000000000000000000000000815250565b6000610fc6601283611512565b91507f5472616465206973206e6f74204f70656e2e00000000000000000000000000006000830152602082019050919050565b7f43616e63656c6c65640000000000000000000000000000000000000000000000815250565b600061102c601783611512565b91507f5472616465206973206e6f74206c6f636b656420696e2e0000000000000000006000830152602082019050919050565b7f4f70656e00000000000000000000000000000000000000000000000000000000815250565b6000611092602983611512565b91507f5061796d656e74206d757374206d656574206f72206578636565642061736b6960008301527f6e672070726963652e00000000000000000000000000000000000000000000006020830152604082019050919050565b60006110f8601b83611512565b91507f4974656d206973206e6f206c6f6e67657220617661696c61626c6500000000006000830152602082019050919050565b6000611138601583611512565b91507f5472616465206973206e6f742050656e64696e672e00000000000000000000006000830152602082019050919050565b6000611178601683611512565b91507f5472616465206973206e6f74206f70656e61626c652e000000000000000000006000830152602082019050919050565b6111b48161157d565b82525050565b60006020820190506111cf6000830184610f40565b92915050565b60006020820190506111ea6000830184610f31565b92915050565b60006060820190506112056000830186610f22565b6112126020830185610f40565b61121f60408301846111ab565b949350505050565b600060c08201905061123c6000830189610f40565b6112496020830188610f22565b6112566040830187610f40565b61126360608301866111ab565b61127060808301856111ab565b61127d60a0830184610f5e565b979650505050505050565b600060608201905061129d6000830186610f40565b6112aa6020830185610f22565b6112b760408301846111ab565b949350505050565b600060e0820190506112d4600083018a610f40565b6112e16020830189610f40565b6112ee6040830188610f40565b6112fb60608301876111ab565b61130860808301866111ab565b61131560a0830185610f5e565b61132260c0830184610f40565b98975050505050505050565b60006060820190506113436000830186610f40565b6113506020830185610f40565b61135d60408301846111ab565b949350505050565b600060208201905061137a6000830184610f4f565b92915050565b60006020820190506113956000830184610f5e565b92915050565b600060208201905081810360008301526113b481610fb9565b9050919050565b600060208201905081810360008301526113d48161101f565b9050919050565b600060208201905081810360008301526113f481611085565b9050919050565b60006020820190508181036000830152611414816110eb565b9050919050565b600060208201905081810360008301526114348161112b565b9050919050565b600060208201905081810360008301526114548161116b565b9050919050565b600060208201905061147060008301846111ab565b92915050565b600060408201905061148b60008301846111ab565b61149760208301610f6d565b92915050565b60006040820190506114b260008301846111ab565b6114be60208301610f93565b92915050565b60006040820190506114d960008301846111ab565b6114e560208301610ff9565b92915050565b600060408201905061150060008301846111ab565b61150c6020830161105f565b92915050565b600082825260208201905092915050565b600061152e8261155d565b9050919050565b60006115408261155d565b9050919050565b60008115159050919050565b6000819050919050565b600073ffffffffffffffffffffffffffffffffffffffff82169050919050565b6000819050919050565b600061159282611599565b9050919050565b60006115a4826115ab565b9050919050565b60006115b68261155d565b905091905056fea2646970667358221220298ba4eece024dd5c2eb08734a007b25337b3d0b9050fc5d0f3af0e23d50aa5064736f6c63430007030033",
  "linkReferences": {},
  "deployedLinkReferences": {}
}