{
  "_format": "hh-sol-artifact-1",
  "contractName": "SaleFactory",
  "sourceName": "contracts/Sales.sol",
  "abi": [
    {
      "inputs": [
        {
          "internalType": "address",
          "name": "_itemTokenAddress",
          "type": "address"
        },
        {
          "internalType": "uint256",
          "name": "_item",
          "type": "uint256"
        },
        {
          "internalType": "uint256",
          "name": "price",
          "type": "uint256"
        }
      ],
      "name": "createSale",
      "outputs": [],
      "stateMutability": "nonpayable",
      "type": "function"
    },
    {
      "inputs": [],
      "name": "getSales",
      "outputs": [
        {
          "internalType": "address[]",
          "name": "",
          "type": "address[]"
        }
      ],
      "stateMutability": "view",
      "type": "function"
    },
    {
      "inputs": [
        {
          "internalType": "uint256",
          "name": "",
          "type": "uint256"
        }
      ],
      "name": "sales",
      "outputs": [
        {
          "internalType": "address",
          "name": "",
          "type": "address"
        }
      ],
      "stateMutability": "view",
      "type": "function"
    }
  ],
  "bytecode": "0x608060405234801561001057600080fd5b5061101a806100206000396000f3fe608060405234801561001057600080fd5b50600436106100415760003560e01c80630d83304c146100465780639f161af2146100a5578063b5f522f7146100fd575b600080fd5b61004e610155565b6040518080602001828103825283818151815260200191508051906020019060200280838360005b83811015610091578082015181840152602081019050610076565b505050509050019250505060405180910390f35b6100fb600480360360608110156100bb57600080fd5b81019080803573ffffffffffffffffffffffffffffffffffffffff16906020019092919080359060200190929190803590602001909291905050506101e3565b005b6101296004803603602081101561011357600080fd5b81019080803590602001909291905050506102c8565b604051808273ffffffffffffffffffffffffffffffffffffffff16815260200191505060405180910390f35b606060008054806020026020016040519081016040528092919081815260200182805480156101d957602002820191906000526020600020905b8160009054906101000a900473ffffffffffffffffffffffffffffffffffffffff1673ffffffffffffffffffffffffffffffffffffffff168152602001906001019080831161018f575b5050505050905090565b6000338484846040516101f590610304565b808573ffffffffffffffffffffffffffffffffffffffff1681526020018473ffffffffffffffffffffffffffffffffffffffff168152602001838152602001828152602001945050505050604051809103906000f08015801561025c573d6000803e3d6000fd5b5090506000819080600181540180825580915050600190039060005260206000200160009091909190916101000a81548173ffffffffffffffffffffffffffffffffffffffff021916908373ffffffffffffffffffffffffffffffffffffffff16021790555050505050565b600081815481106102d557fe5b906000526020600020016000915054906101000a900473ffffffffffffffffffffffffffffffffffffffff1681565b610cd3806103128339019056fe608060405234801561001057600080fd5b50604051610cd3380380610cd38339818101604052608081101561003357600080fd5b8101908080519060200190929190805190602001909291908051906020019092919080519060200190929190505050826000806101000a81548173ffffffffffffffffffffffffffffffffffffffff021916908373ffffffffffffffffffffffffffffffffffffffff16021790555082600260006101000a81548173ffffffffffffffffffffffffffffffffffffffff021916908373ffffffffffffffffffffffffffffffffffffffff16021790555083600160006101000a81548173ffffffffffffffffffffffffffffffffffffffff021916908373ffffffffffffffffffffffffffffffffffffffff16021790555081600381905550806004819055507f50656e64696e670000000000000000000000000000000000000000000000000060058190555050505050610b678061016c6000396000f3fe6080604052600436106100915760003560e01c8063a035b1fe11610059578063a035b1fe146101cd578063dedad97d146101f8578063e0c70b661461020f578063f2a4a82e14610219578063fb201b1d1461024457610091565b8063200d2ed2146100965780634051ddac146100c157806379210c4d1461013457806380959721146101755780639c76230c146101b6575b600080fd5b3480156100a257600080fd5b506100ab61025b565b6040518082815260200191505060405180910390f35b3480156100cd57600080fd5b506100d6610261565b604051808673ffffffffffffffffffffffffffffffffffffffff1681526020018573ffffffffffffffffffffffffffffffffffffffff1681526020018481526020018381526020018281526020019550505050505060405180910390f35b34801561014057600080fd5b506101496102c9565b604051808273ffffffffffffffffffffffffffffffffffffffff16815260200191505060405180910390f35b34801561018157600080fd5b5061018a6102ef565b604051808273ffffffffffffffffffffffffffffffffffffffff16815260200191505060405180910390f35b3480156101c257600080fd5b506101cb610315565b005b3480156101d957600080fd5b506101e2610521565b6040518082815260200191505060405180910390f35b34801561020457600080fd5b5061020d610527565b005b610217610648565b005b34801561022557600080fd5b5061022e610832565b6040518082815260200191505060405180910390f35b34801561025057600080fd5b50610259610838565b005b60055481565b6000806000806000600160009054906101000a900473ffffffffffffffffffffffffffffffffffffffff16600260009054906101000a900473ffffffffffffffffffffffffffffffffffffffff16600354600454600554945094509450945094509091929394565b600260009054906101000a900473ffffffffffffffffffffffffffffffffffffffff1681565b600160009054906101000a900473ffffffffffffffffffffffffffffffffffffffff1681565b7f4f70656e00000000000000000000000000000000000000000000000000000000600554146103ac576040517f08c379a00000000000000000000000000000000000000000000000000000000081526004018080602001828103825260128152602001807f5472616465206973206e6f74204f70656e2e000000000000000000000000000081525060200191505060405180910390fd5b60008054906101000a900473ffffffffffffffffffffffffffffffffffffffff1673ffffffffffffffffffffffffffffffffffffffff166342842e0e30600160009054906101000a900473ffffffffffffffffffffffffffffffffffffffff166003546040518463ffffffff1660e01b8152600401808473ffffffffffffffffffffffffffffffffffffffff1681526020018373ffffffffffffffffffffffffffffffffffffffff1681526020018281526020019350505050600060405180830381600087803b15801561047f57600080fd5b505af1158015610493573d6000803e3d6000fd5b505050507f43616e63656c6c656400000000000000000000000000000000000000000000006005819055507f4d38ed2c5ea671a5ccddc331f0ebebd94a60aaf6e572543497485d4d148f9edf60035460405180828152602001807f43616e63656c6c6564000000000000000000000000000000000000000000000081525060200191505060405180910390a1565b60045481565b7f50656e64696e6700000000000000000000000000000000000000000000000000600554146105be576040517f08c379a00000000000000000000000000000000000000000000000000000000081526004018080602001828103825260158152602001807f5472616465206973206e6f742050656e64696e672e000000000000000000000081525060200191505060405180910390fd5b7f43616e63656c6c656400000000000000000000000000000000000000000000006005819055507f4d38ed2c5ea671a5ccddc331f0ebebd94a60aaf6e572543497485d4d148f9edf60035460405180828152602001807f43616e63656c6c6564000000000000000000000000000000000000000000000081525060200191505060405180910390a1565b7f4f70656e00000000000000000000000000000000000000000000000000000000600554146106df576040517f08c379a00000000000000000000000000000000000000000000000000000000081526004018080602001828103825260128152602001807f5472616465206973206e6f74204f70656e2e000000000000000000000000000081525060200191505060405180910390fd5b60008054906101000a900473ffffffffffffffffffffffffffffffffffffffff1673ffffffffffffffffffffffffffffffffffffffff166342842e0e30336003546040518463ffffffff1660e01b8152600401808473ffffffffffffffffffffffffffffffffffffffff1681526020018373ffffffffffffffffffffffffffffffffffffffff1681526020018281526020019350505050600060405180830381600087803b15801561079057600080fd5b505af11580156107a4573d6000803e3d6000fd5b505050507f45786563757465640000000000000000000000000000000000000000000000006005819055507f4d38ed2c5ea671a5ccddc331f0ebebd94a60aaf6e572543497485d4d148f9edf60035460405180828152602001807f457865637574656400000000000000000000000000000000000000000000000081525060200191505060405180910390a1565b60035481565b600160009054906101000a900473ffffffffffffffffffffffffffffffffffffffff1673ffffffffffffffffffffffffffffffffffffffff1660008054906101000a900473ffffffffffffffffffffffffffffffffffffffff1673ffffffffffffffffffffffffffffffffffffffff16636352211e6003546040518263ffffffff1660e01b81526004018082815260200191505060206040518083038186803b1580156108e457600080fd5b505afa1580156108f8573d6000803e3d6000fd5b505050506040513d602081101561090e57600080fd5b810190808051906020019092919050505073ffffffffffffffffffffffffffffffffffffffff16146109a8576040517f08c379a000000000000000000000000000000000000000000000000000000000815260040180806020018281038252601e8152602001807f506f73746572206d757374206265206f776e6572206f6620746f6b656e2e000081525060200191505060405180910390fd5b7f50656e64696e670000000000000000000000000000000000000000000000000060055414610a3f576040517f08c379a00000000000000000000000000000000000000000000000000000000081526004018080602001828103825260168152602001807f5472616465206973206e6f74206f70656e61626c652e0000000000000000000081525060200191505060405180910390fd5b7f4f70656e0000000000000000000000000000000000000000000000000000000060058190555060008054906101000a900473ffffffffffffffffffffffffffffffffffffffff1673ffffffffffffffffffffffffffffffffffffffff166323b872dd33306003546040518463ffffffff1660e01b8152600401808473ffffffffffffffffffffffffffffffffffffffff1681526020018373ffffffffffffffffffffffffffffffffffffffff1681526020018281526020019350505050600060405180830381600087803b158015610b1757600080fd5b505af1158015610b2b573d6000803e3d6000fd5b5050505056fea264697066735822122058f465aa14cd08d395ad2707f78c17a65f56344c4a9e04649b9152d37613ea6a64736f6c63430007030033a26469706673582212207e0e81b64ad3112ce6851201c4a26a18912e6427721c71fe5626d97da3acc00c64736f6c63430007030033",
  "linkReferences": {},
  "deployedLinkReferences": {}
}