{
  "_format": "hh-sol-artifact-1",
  "contractName": "Sale",
  "sourceName": "contracts/Sales.sol",
  "abi": [
    {
      "inputs": [
        {
          "internalType": "address payable",
          "name": "_poster",
          "type": "address"
        },
        {
          "internalType": "address",
          "name": "_itemTokenAddress",
          "type": "address"
        },
        {
          "internalType": "uint256",
          "name": "_item",
          "type": "uint256"
        },
        {
          "internalType": "uint256",
          "name": "_price",
          "type": "uint256"
        }
      ],
      "stateMutability": "nonpayable",
      "type": "constructor"
    },
    {
      "anonymous": false,
      "inputs": [
        {
          "indexed": false,
          "internalType": "address",
          "name": "ad",
          "type": "address"
        }
      ],
      "name": "ContractCreated",
      "type": "event"
    },
    {
      "anonymous": false,
      "inputs": [
        {
          "indexed": false,
          "internalType": "uint256",
          "name": "ad",
          "type": "uint256"
        },
        {
          "indexed": false,
          "internalType": "bytes32",
          "name": "status",
          "type": "bytes32"
        }
      ],
      "name": "TradeStatusChange",
      "type": "event"
    },
    {
      "inputs": [],
      "name": "buyer",
      "outputs": [
        {
          "internalType": "address",
          "name": "",
          "type": "address"
        }
      ],
      "stateMutability": "view",
      "type": "function"
    },
    {
      "inputs": [],
      "name": "cancelPending",
      "outputs": [],
      "stateMutability": "nonpayable",
      "type": "function"
    },
    {
      "inputs": [],
      "name": "cancelTrade",
      "outputs": [],
      "stateMutability": "nonpayable",
      "type": "function"
    },
    {
      "inputs": [],
      "name": "getSummary",
      "outputs": [
        {
          "internalType": "address",
          "name": "",
          "type": "address"
        },
        {
          "internalType": "address",
          "name": "",
          "type": "address"
        },
        {
          "internalType": "address",
          "name": "",
          "type": "address"
        },
        {
          "internalType": "uint256",
          "name": "",
          "type": "uint256"
        },
        {
          "internalType": "uint256",
          "name": "",
          "type": "uint256"
        },
        {
          "internalType": "bytes32",
          "name": "",
          "type": "bytes32"
        },
        {
          "internalType": "address",
          "name": "",
          "type": "address"
        }
      ],
      "stateMutability": "view",
      "type": "function"
    },
    {
      "inputs": [],
      "name": "item",
      "outputs": [
        {
          "internalType": "uint256",
          "name": "",
          "type": "uint256"
        }
      ],
      "stateMutability": "view",
      "type": "function"
    },
    {
      "inputs": [],
      "name": "itemTokenAddress",
      "outputs": [
        {
          "internalType": "address",
          "name": "",
          "type": "address"
        }
      ],
      "stateMutability": "view",
      "type": "function"
    },
    {
      "inputs": [],
      "name": "openTrade",
      "outputs": [],
      "stateMutability": "nonpayable",
      "type": "function"
    },
    {
      "inputs": [],
      "name": "parent",
      "outputs": [
        {
          "internalType": "address",
          "name": "",
          "type": "address"
        }
      ],
      "stateMutability": "view",
      "type": "function"
    },
    {
      "inputs": [],
      "name": "payment",
      "outputs": [
        {
          "internalType": "uint256",
          "name": "",
          "type": "uint256"
        }
      ],
      "stateMutability": "view",
      "type": "function"
    },
    {
      "inputs": [],
      "name": "poster",
      "outputs": [
        {
          "internalType": "address payable",
          "name": "",
          "type": "address"
        }
      ],
      "stateMutability": "view",
      "type": "function"
    },
    {
      "inputs": [],
      "name": "price",
      "outputs": [
        {
          "internalType": "uint256",
          "name": "",
          "type": "uint256"
        }
      ],
      "stateMutability": "view",
      "type": "function"
    },
    {
      "inputs": [],
      "name": "purchaseToken",
      "outputs": [],
      "stateMutability": "payable",
      "type": "function"
    },
    {
      "inputs": [],
      "name": "purchaser",
      "outputs": [
        {
          "internalType": "bool",
          "name": "",
          "type": "bool"
        }
      ],
      "stateMutability": "view",
      "type": "function"
    },
    {
      "inputs": [],
      "name": "status",
      "outputs": [
        {
          "internalType": "bytes32",
          "name": "",
          "type": "bytes32"
        }
      ],
      "stateMutability": "view",
      "type": "function"
    }
  ],
  "bytecode": "0x60806040523480156200001157600080fd5b5060405162001691380380620016918339818101604052810190620000379190620001f7565b33600160006101000a81548173ffffffffffffffffffffffffffffffffffffffff021916908373ffffffffffffffffffffffffffffffffffffffff160217905550826000806101000a81548173ffffffffffffffffffffffffffffffffffffffff021916908373ffffffffffffffffffffffffffffffffffffffff16021790555082600460006101000a81548173ffffffffffffffffffffffffffffffffffffffff021916908373ffffffffffffffffffffffffffffffffffffffff16021790555083600260006101000a81548173ffffffffffffffffffffffffffffffffffffffff021916908373ffffffffffffffffffffffffffffffffffffffff16021790555081600581905550806006819055507f50656e64696e67000000000000000000000000000000000000000000000000006009819055507fcf78cf0d6f3d8371e1075c69c492ab4ec5d8cf23a1a239b6a51a1d00be7ca31230604051620001a0919062000274565b60405180910390a15050505062000331565b600081519050620001c381620002e3565b92915050565b600081519050620001da81620002fd565b92915050565b600081519050620001f18162000317565b92915050565b600080600080608085870312156200020e57600080fd5b60006200021e87828801620001c9565b94505060206200023187828801620001b2565b93505060406200024487828801620001e0565b92505060606200025787828801620001e0565b91505092959194509250565b6200026e8162000291565b82525050565b60006020820190506200028b600083018462000263565b92915050565b60006200029e82620002b9565b9050919050565b6000620002b282620002b9565b9050919050565b600073ffffffffffffffffffffffffffffffffffffffff82169050919050565b6000819050919050565b620002ee8162000291565b8114620002fa57600080fd5b50565b6200030881620002a5565b81146200031457600080fd5b50565b6200032281620002d9565b81146200032e57600080fd5b50565b61135080620003416000396000f3fe6080604052600436106100dd5760003560e01c8063809597211161007f578063a95c4d6211610059578063a95c4d6214610282578063dedad97d1461028c578063f2a4a82e146102a3578063fb201b1d146102ce576100dd565b806380959721146102155780639c76230c14610240578063a035b1fe14610257576100dd565b80635a77dc46116100bb5780635a77dc461461016957806360f96a8f146101945780637150d8ae146101bf57806379210c4d146101ea576100dd565b8063200d2ed2146100e25780634051ddac1461010d57806342f6487a1461013e575b600080fd5b3480156100ee57600080fd5b506100f76102e5565b60405161010491906110dd565b60405180910390f35b34801561011957600080fd5b506101226102eb565b604051610135979695949392919061101c565b60405180910390f35b34801561014a57600080fd5b50610153610380565b60405161016091906111b8565b60405180910390f35b34801561017557600080fd5b5061017e610386565b60405161018b91906110c2565b60405180910390f35b3480156101a057600080fd5b506101a9610399565b6040516101b69190610f17565b60405180910390f35b3480156101cb57600080fd5b506101d46103bf565b6040516101e19190610f17565b60405180910390f35b3480156101f657600080fd5b506101ff6103e5565b60405161020c9190610f17565b60405180910390f35b34801561022157600080fd5b5061022a61040b565b6040516102379190610f32565b60405180910390f35b34801561024c57600080fd5b50610255610431565b005b34801561026357600080fd5b5061026c6105aa565b60405161027991906111b8565b60405180910390f35b61028a6105b0565b005b34801561029857600080fd5b506102a161077c565b005b3480156102af57600080fd5b506102b8610842565b6040516102c591906111b8565b60405180910390f35b3480156102da57600080fd5b506102e3610848565b005b60095481565b600080600080600080600030600260009054906101000a900473ffffffffffffffffffffffffffffffffffffffff16600460009054906101000a900473ffffffffffffffffffffffffffffffffffffffff16600554600654600954600360009054906101000a900473ffffffffffffffffffffffffffffffffffffffff16965096509650965096509650965090919293949596565b60075481565b600860009054906101000a900460ff1681565b600160009054906101000a900473ffffffffffffffffffffffffffffffffffffffff1681565b600360009054906101000a900473ffffffffffffffffffffffffffffffffffffffff1681565b600460009054906101000a900473ffffffffffffffffffffffffffffffffffffffff1681565b600260009054906101000a900473ffffffffffffffffffffffffffffffffffffffff1681565b7f4f70656e0000000000000000000000000000000000000000000000000000000060095414610495576040517f08c379a000000000000000000000000000000000000000000000000000000000815260040161048c906110f8565b60405180910390fd5b7f43616e63656c6c6564000000000000000000000000000000000000000000000060098190555060008054906101000a900473ffffffffffffffffffffffffffffffffffffffff1673ffffffffffffffffffffffffffffffffffffffff166342842e0e30600260009054906101000a900473ffffffffffffffffffffffffffffffffffffffff166005546040518463ffffffff1660e01b815260040161053d93929190610fe5565b600060405180830381600087803b15801561055757600080fd5b505af115801561056b573d6000803e3d6000fd5b505050507f4d38ed2c5ea671a5ccddc331f0ebebd94a60aaf6e572543497485d4d148f9edf6005546040516105a09190611221565b60405180910390a1565b60065481565b7f4f70656e0000000000000000000000000000000000000000000000000000000060095414610614576040517f08c379a000000000000000000000000000000000000000000000000000000000815260040161060b906110f8565b60405180910390fd5b600654341015610659576040517f08c379a000000000000000000000000000000000000000000000000000000000815260040161065090611138565b60405180910390fd5b60001515600860009054906101000a900460ff161515146106af576040517f08c379a00000000000000000000000000000000000000000000000000000000081526004016106a690611158565b60405180910390fd5b6001600860006101000a81548160ff021916908315150217905550346007819055507f4c6f636b6564000000000000000000000000000000000000000000000000000060098190555033600360006101000a81548173ffffffffffffffffffffffffffffffffffffffff021916908373ffffffffffffffffffffffffffffffffffffffff1602179055507f4d38ed2c5ea671a5ccddc331f0ebebd94a60aaf6e572543497485d4d148f9edf60055460405161076a91906111fa565b60405180910390a161077a610a9b565b565b7f50656e64696e6700000000000000000000000000000000000000000000000000600954146107e0576040517f08c379a00000000000000000000000000000000000000000000000000000000081526004016107d790611178565b60405180910390fd5b7f43616e63656c6c656400000000000000000000000000000000000000000000006009819055507f4d38ed2c5ea671a5ccddc331f0ebebd94a60aaf6e572543497485d4d148f9edf6005546040516108389190611221565b60405180910390a1565b60055481565b7f50656e64696e6700000000000000000000000000000000000000000000000000600954146108ac576040517f08c379a00000000000000000000000000000000000000000000000000000000081526004016108a390611198565b60405180910390fd5b7f4f70656e000000000000000000000000000000000000000000000000000000006009819055506000600860006101000a81548160ff02191690831515021790555060008054906101000a900473ffffffffffffffffffffffffffffffffffffffff1673ffffffffffffffffffffffffffffffffffffffff166323b872dd33306005546040518463ffffffff1660e01b815260040161094d93929190610f4d565b600060405180830381600087803b15801561096757600080fd5b505af115801561097b573d6000803e3d6000fd5b50505050600160009054906101000a900473ffffffffffffffffffffffffffffffffffffffff1673ffffffffffffffffffffffffffffffffffffffff1663d4b6135830600260009054906101000a900473ffffffffffffffffffffffffffffffffffffffff16600460009054906101000a900473ffffffffffffffffffffffffffffffffffffffff166005546006546009546040518763ffffffff1660e01b8152600401610a2e96959493929190610f84565b600060405180830381600087803b158015610a4857600080fd5b505af1158015610a5c573d6000803e3d6000fd5b505050507f4d38ed2c5ea671a5ccddc331f0ebebd94a60aaf6e572543497485d4d148f9edf600554604051610a919190611248565b60405180910390a1565b7f4c6f636b6564000000000000000000000000000000000000000000000000000060095414610aff576040517f08c379a0000000000000000000000000000000000000000000000000000000008152600401610af690611118565b60405180910390fd5b60008054906101000a900473ffffffffffffffffffffffffffffffffffffffff1673ffffffffffffffffffffffffffffffffffffffff166342842e0e30600360009054906101000a900473ffffffffffffffffffffffffffffffffffffffff166005546040518463ffffffff1660e01b8152600401610b809392919061108b565b600060405180830381600087803b158015610b9a57600080fd5b505af1158015610bae573d6000803e3d6000fd5b50505050600260009054906101000a900473ffffffffffffffffffffffffffffffffffffffff1673ffffffffffffffffffffffffffffffffffffffff166108fc6007549081150290604051600060405180830381858888f19350505050158015610c1c573d6000803e3d6000fd5b507f45786563757465640000000000000000000000000000000000000000000000006009819055507f4d38ed2c5ea671a5ccddc331f0ebebd94a60aaf6e572543497485d4d148f9edf600554604051610c7591906111d3565b60405180910390a1565b610c88816112e4565b82525050565b610c9781611292565b82525050565b610ca681611280565b82525050565b610cb5816112a4565b82525050565b610cc4816112b0565b82525050565b7f4578656375746564000000000000000000000000000000000000000000000000815250565b7f4c6f636b65640000000000000000000000000000000000000000000000000000815250565b6000610d2360128361126f565b91507f5472616465206973206e6f74204f70656e2e00000000000000000000000000006000830152602082019050919050565b7f43616e63656c6c65640000000000000000000000000000000000000000000000815250565b6000610d8960178361126f565b91507f5472616465206973206e6f74206c6f636b656420696e2e0000000000000000006000830152602082019050919050565b7f4f70656e00000000000000000000000000000000000000000000000000000000815250565b6000610def60298361126f565b91507f5061796d656e74206d757374206d656574206f72206578636565642061736b6960008301527f6e672070726963652e00000000000000000000000000000000000000000000006020830152604082019050919050565b6000610e55601b8361126f565b91507f4974656d206973206e6f206c6f6e67657220617661696c61626c6500000000006000830152602082019050919050565b6000610e9560158361126f565b91507f5472616465206973206e6f742050656e64696e672e00000000000000000000006000830152602082019050919050565b6000610ed560168361126f565b91507f5472616465206973206e6f74206f70656e61626c652e000000000000000000006000830152602082019050919050565b610f11816112da565b82525050565b6000602082019050610f2c6000830184610c9d565b92915050565b6000602082019050610f476000830184610c8e565b92915050565b6000606082019050610f626000830186610c7f565b610f6f6020830185610c9d565b610f7c6040830184610f08565b949350505050565b600060c082019050610f996000830189610c9d565b610fa66020830188610c7f565b610fb36040830187610c9d565b610fc06060830186610f08565b610fcd6080830185610f08565b610fda60a0830184610cbb565b979650505050505050565b6000606082019050610ffa6000830186610c9d565b6110076020830185610c7f565b6110146040830184610f08565b949350505050565b600060e082019050611031600083018a610c9d565b61103e6020830189610c9d565b61104b6040830188610c9d565b6110586060830187610f08565b6110656080830186610f08565b61107260a0830185610cbb565b61107f60c0830184610c9d565b98975050505050505050565b60006060820190506110a06000830186610c9d565b6110ad6020830185610c9d565b6110ba6040830184610f08565b949350505050565b60006020820190506110d76000830184610cac565b92915050565b60006020820190506110f26000830184610cbb565b92915050565b6000602082019050818103600083015261111181610d16565b9050919050565b6000602082019050818103600083015261113181610d7c565b9050919050565b6000602082019050818103600083015261115181610de2565b9050919050565b6000602082019050818103600083015261117181610e48565b9050919050565b6000602082019050818103600083015261119181610e88565b9050919050565b600060208201905081810360008301526111b181610ec8565b9050919050565b60006020820190506111cd6000830184610f08565b92915050565b60006040820190506111e86000830184610f08565b6111f460208301610cca565b92915050565b600060408201905061120f6000830184610f08565b61121b60208301610cf0565b92915050565b60006040820190506112366000830184610f08565b61124260208301610d56565b92915050565b600060408201905061125d6000830184610f08565b61126960208301610dbc565b92915050565b600082825260208201905092915050565b600061128b826112ba565b9050919050565b600061129d826112ba565b9050919050565b60008115159050919050565b6000819050919050565b600073ffffffffffffffffffffffffffffffffffffffff82169050919050565b6000819050919050565b60006112ef826112f6565b9050919050565b600061130182611308565b9050919050565b6000611313826112ba565b905091905056fea26469706673582212203fd690279b76dae2b4a0cf535b0574403e37f158b2859768d3ea7a86cdd9a5d564736f6c63430007030033",
  "linkReferences": {},
  "deployedLinkReferences": {}
}