{
  "_format": "hh-sol-artifact-1",
  "contractName": "SaleFactory",
  "sourceName": "contracts/Sales.sol",
  "abi": [
    {
      "inputs": [
        {
          "internalType": "address",
          "name": "_itemTokenAddress",
          "type": "address"
        },
        {
          "internalType": "uint256",
          "name": "_item",
          "type": "uint256"
        },
        {
          "internalType": "uint256",
          "name": "price",
          "type": "uint256"
        }
      ],
      "name": "createTrade",
      "outputs": [],
      "stateMutability": "nonpayable",
      "type": "function"
    },
    {
      "inputs": [],
      "name": "getTrades",
      "outputs": [
        {
          "internalType": "address[]",
          "name": "",
          "type": "address[]"
        }
      ],
      "stateMutability": "view",
      "type": "function"
    },
    {
      "inputs": [
        {
          "internalType": "uint256",
          "name": "",
          "type": "uint256"
        }
      ],
      "name": "sales",
      "outputs": [
        {
          "internalType": "address",
          "name": "",
          "type": "address"
        }
      ],
      "stateMutability": "view",
      "type": "function"
    }
  ],
  "bytecode": "0x608060405234801561001057600080fd5b50610ca9806100206000396000f3fe608060405234801561001057600080fd5b50600436106100415760003560e01c8063ad06bfe914610046578063b5f522f71461009e578063e43372e9146100f6575b600080fd5b61009c6004803603606081101561005c57600080fd5b81019080803573ffffffffffffffffffffffffffffffffffffffff1690602001909291908035906020019092919080359060200190929190505050610155565b005b6100ca600480360360208110156100b457600080fd5b810190808035906020019092919050505061023a565b604051808273ffffffffffffffffffffffffffffffffffffffff16815260200191505060405180910390f35b6100fe610276565b6040518080602001828103825283818151815260200191508051906020019060200280838360005b83811015610141578082015181840152602081019050610126565b505050509050019250505060405180910390f35b60003384848460405161016790610304565b808573ffffffffffffffffffffffffffffffffffffffff1681526020018473ffffffffffffffffffffffffffffffffffffffff168152602001838152602001828152602001945050505050604051809103906000f0801580156101ce573d6000803e3d6000fd5b5090506000819080600181540180825580915050600190039060005260206000200160009091909190916101000a81548173ffffffffffffffffffffffffffffffffffffffff021916908373ffffffffffffffffffffffffffffffffffffffff16021790555050505050565b6000818154811061024757fe5b906000526020600020016000915054906101000a900473ffffffffffffffffffffffffffffffffffffffff1681565b606060008054806020026020016040519081016040528092919081815260200182805480156102fa57602002820191906000526020600020905b8160009054906101000a900473ffffffffffffffffffffffffffffffffffffffff1673ffffffffffffffffffffffffffffffffffffffff16815260200190600101908083116102b0575b5050505050905090565b610962806103128339019056fe608060405234801561001057600080fd5b506040516109623803806109628339818101604052608081101561003357600080fd5b8101908080519060200190929190805190602001909291908051906020019092919080519060200190929190505050826000806101000a81548173ffffffffffffffffffffffffffffffffffffffff021916908373ffffffffffffffffffffffffffffffffffffffff16021790555082600260006101000a81548173ffffffffffffffffffffffffffffffffffffffff021916908373ffffffffffffffffffffffffffffffffffffffff16021790555083600160006101000a81548173ffffffffffffffffffffffffffffffffffffffff021916908373ffffffffffffffffffffffffffffffffffffffff16021790555081600381905550806004819055507f4f70656e00000000000000000000000000000000000000000000000000000000600581905550505050506107f68061016c6000396000f3fe6080604052600436106100865760003560e01c80639c76230c116100595780639c76230c146101ab578063a035b1fe146101c2578063e0c70b66146101ed578063f2a4a82e146101f7578063fb201b1d1461022257610086565b8063200d2ed21461008b5780634051ddac146100b657806379210c4d14610129578063809597211461016a575b600080fd5b34801561009757600080fd5b506100a0610239565b6040518082815260200191505060405180910390f35b3480156100c257600080fd5b506100cb61023f565b604051808673ffffffffffffffffffffffffffffffffffffffff1681526020018573ffffffffffffffffffffffffffffffffffffffff1681526020018481526020018381526020018281526020019550505050505060405180910390f35b34801561013557600080fd5b5061013e6102a7565b604051808273ffffffffffffffffffffffffffffffffffffffff16815260200191505060405180910390f35b34801561017657600080fd5b5061017f6102cd565b604051808273ffffffffffffffffffffffffffffffffffffffff16815260200191505060405180910390f35b3480156101b757600080fd5b506101c06102f3565b005b3480156101ce57600080fd5b506101d76104ff565b6040518082815260200191505060405180910390f35b6101f5610505565b005b34801561020357600080fd5b5061020c6106ef565b6040518082815260200191505060405180910390f35b34801561022e57600080fd5b506102376106f5565b005b60055481565b6000806000806000600160009054906101000a900473ffffffffffffffffffffffffffffffffffffffff16600260009054906101000a900473ffffffffffffffffffffffffffffffffffffffff16600354600454600554945094509450945094509091929394565b600260009054906101000a900473ffffffffffffffffffffffffffffffffffffffff1681565b600160009054906101000a900473ffffffffffffffffffffffffffffffffffffffff1681565b7f4f70656e000000000000000000000000000000000000000000000000000000006005541461038a576040517f08c379a00000000000000000000000000000000000000000000000000000000081526004018080602001828103825260128152602001807f5472616465206973206e6f74204f70656e2e000000000000000000000000000081525060200191505060405180910390fd5b60008054906101000a900473ffffffffffffffffffffffffffffffffffffffff1673ffffffffffffffffffffffffffffffffffffffff166342842e0e30600160009054906101000a900473ffffffffffffffffffffffffffffffffffffffff166003546040518463ffffffff1660e01b8152600401808473ffffffffffffffffffffffffffffffffffffffff1681526020018373ffffffffffffffffffffffffffffffffffffffff1681526020018281526020019350505050600060405180830381600087803b15801561045d57600080fd5b505af1158015610471573d6000803e3d6000fd5b505050507f43616e63656c6c656400000000000000000000000000000000000000000000006005819055507f4d38ed2c5ea671a5ccddc331f0ebebd94a60aaf6e572543497485d4d148f9edf60035460405180828152602001807f43616e63656c6c6564000000000000000000000000000000000000000000000081525060200191505060405180910390a1565b60045481565b7f4f70656e000000000000000000000000000000000000000000000000000000006005541461059c576040517f08c379a00000000000000000000000000000000000000000000000000000000081526004018080602001828103825260128152602001807f5472616465206973206e6f74204f70656e2e000000000000000000000000000081525060200191505060405180910390fd5b60008054906101000a900473ffffffffffffffffffffffffffffffffffffffff1673ffffffffffffffffffffffffffffffffffffffff166342842e0e30336003546040518463ffffffff1660e01b8152600401808473ffffffffffffffffffffffffffffffffffffffff1681526020018373ffffffffffffffffffffffffffffffffffffffff1681526020018281526020019350505050600060405180830381600087803b15801561064d57600080fd5b505af1158015610661573d6000803e3d6000fd5b505050507f45786563757465640000000000000000000000000000000000000000000000006005819055507f4d38ed2c5ea671a5ccddc331f0ebebd94a60aaf6e572543497485d4d148f9edf60035460405180828152602001807f457865637574656400000000000000000000000000000000000000000000000081525060200191505060405180910390a1565b60035481565b60008054906101000a900473ffffffffffffffffffffffffffffffffffffffff1673ffffffffffffffffffffffffffffffffffffffff166323b872dd33306003546040518463ffffffff1660e01b8152600401808473ffffffffffffffffffffffffffffffffffffffff1681526020018373ffffffffffffffffffffffffffffffffffffffff1681526020018281526020019350505050600060405180830381600087803b1580156107a657600080fd5b505af11580156107ba573d6000803e3d6000fd5b5050505056fea264697066735822122091a3b2974bc801e9f2e2a804151b5a0d589d81743a8183acf740cdee21c9307064736f6c63430007030033a264697066735822122073b8d28f3df9a6fcff2451013a7f1b90021b840b89bb02ea8b5bf49e66b0732764736f6c63430007030033",
  "linkReferences": {},
  "deployedLinkReferences": {}
}